:020000040000FA
:100000000204B085A73712072F12081812084812E9
:1000100007DA12085C1207F0120805120825120808
:08002000521208638537A72284
:10002B0002086AC101013409C100013D00013E0013
:10003B00023F000001280002260000022A0000C136
:0F004B00030121000222000002240000C1020074
:10005B0002083DE4F537C3E537940474809480407F
:10006B000302021FE53775F004A42408F9E4F53800
:10007B00F539893AF53B20062FAB38AA3912024CD9
:10008B00C394507480948040030201E67401120201
:10009B009212024CD394507480948050030201E668
:1000AB0074501202E70201E6AB38AA39A93A900064
:1000BB0001120265604890000174FF1202B49000B7
:1000CB0002120265FF3395E0FE900001120265FDFE
:1000DB00C39FEE6480F87480985004AF05801AAB10
:1000EB0038AA39A93A90000212026525E0FF900068
:1000FB0001120265FEC3EF9EFF8F3B0201E6120762
:10010B00C2C3EF9408E4940050211207C2EF5407C6
:10011B0004AB38AA39A93A9000021202F9900002F6
:10012B0012026525E09000010201E3AB38AA39A960
:10013B003A900003120265FF606E3395E0FED3EF39
:10014B009400EE64809480402B90000374FF1202A5
:10015B00B412024CC3946974809480AB38AA39A949
:10016B003A50047401802F900003120265F404903E
:10017B0000038064AB38AA39A93A900003740112CA
:10018B0002B412024CD3943774809480AB38AA39E2
:10019B00A93A400774FF12029280409000031202AA
:1001AB0065F40490000380301207C2C3EF9410E48F
:1001BB00940050271207C2EF541F241EF53C120760
:1001CB00C2EF30E004AF3C8005E53CF404FFAB38F4
:1001DB00AA39A93A900003EF1202F9AB38AA39A950
:1001EB003A12024CFFAD3BED3395E0FCEF2DFFE4F3
:1001FB003CFEEF25E0FFEE33FE74742FF58274089E
:10020B003EF583E493FC740193FDAF371204240590
:10021B0037020061200629D206E4F537C3E537948F
:10022B0004748094805019E53725E025E02408F804
:10023B00E6C39450748094805002C206053780DC6C
:10024B0022BB010689828A83E0225002E722BBFE91
:10025B0002E32289828A83E49322BB010CE5822983
:10026B00F582E5833AF583E0225006E92582F8E62C
:10027B0022BBFE06E92582F8E222E58229F582E51A
:10028B00833AF583E49322BB010989828A83F8E0E0
:10029B0028F022500327F722BBFE05F8E328F322B0
:1002AB008A838982F8E4932822BB010FF8E582291F
:1002BB00F582E5833AF583E028F0225009C58229BF
:1002CB00F8E58226F622BBFE09C58229F8E22582D3
:1002DB00F222F8EA2583F583E9932822BB010689EC
:1002EB00828A83F0225002F722BBFE01F322F8BB75
:1002FB00010DE58229F582E5833AF583E8F022507A
:10030B0006E92582C8F622BBFE05E92582C8F22242
:10031B00EF8DF0A4A8F0CF8CF0A428CE8DF0A42EF6
:10032B00FE22BC000BBE0029EF8DF084FFADF02246
:10033B00E4CCF875F008EF2FFFEE33FEEC33FCEE58
:10034B009DEC984005FCEE9DFE0FD5F0E9E4CEFD4B
:10035B0022EDF8F5F0EE8420D21CFEADF075F0081E
:10036B00EF2FFFED33FD4007985006D5F0F222C377
:10037B0098FD0FD5F0EA22EB9FF5F0EA9E42F0E9EB
:10038B009D42F0E89C45F02212000375A71075C240
:10039B006175D18075C5FF75C6FF75C901E4F5A7F9
:1003AB00D2DEFDFCFF120424E4FDFC7F01120424C9
:1003BB00E4FDFC7F02120424E4FDFC7F0312042401
:1003CB00D2AF12083112086FD286C2832086FD7518
:1003DB00290112077A1208318E358F3630010DC282
:1003EB000112005E120623AF291205B23000E6C2DD
:1003FB0004D2831206DA20040C3001FAC201120572
:10040B003C920480F12086FD7F647E00120685C23B
:10041B008675C90875870280BCC2AFEF25E0242C16
:10042B00F8A60408A605D2AFEF24FE602C14604E8C
:10043B002402707075A710ED4C700353D1FEEF259D
:10044B00E0242DF8E6F5ABEF25E0242CF8E6F5AC2F
:10045B00ED4C604D43D101804875A710ED4C7003F6
:10046B0053D1FDEF25E0242DF8E6F5B2EF25E0247E
:10047B002CF8E6F5B3ED4C600343D102802375A74E
:10048B0010ED4C700353D1FBEF25E0242DF8E6F56E
:10049B00B9EF25E0242CF8E6F5BAED4C600343D117
:1004AB0004E4F5A722787FE4F6D8FD7581420204B7
:1004BB00F7020393E493A3F8E493A34003F68001BC
:1004CB00F208DFF48029E493A3F85407240CC8C383
:1004DB0033C4540F4420C8834004F456800146F6BD
:1004EB00DFE4800B010204081020408090002EE412
:1004FB007E019360BCA3FF543F30E509541FFEE41B
:10050B0093A360010ECF54C025E060A840B8E493DC
:10051B00A3FAE493A3F8E493A3C8C582C8CAC5831E
:10052B00CAF0A3C8C582C8CAC583CADFE9DEE780A3
:10053B00BED205E4F537C3E537940474809480503C
:10054B0060E53725E0242CF8E6F53808E6F539D3D5
:10055B009400E53894004030E53725E02418F8E6A0
:10056B00FE08E6FFD3E5399FE5389E400AE5399F43
:10057B00FFE5389EFE80047E007F008E3A8F3BADF8
:10058B003BAC3AAF37120424E53725E0242CF8E6D0
:10059B00FE08E6D39400EE94004002C205053780B6
:1005AB0095C3300501D322EF24FE60381460381454
:1005BB00605D2403705FE5234522701FC3E5219422
:1005CB000B748094805048B2837E002083047F0A92
:1005DB0080027F288E228F23052122E5231523708D
:1005EB0036152222C2832220020AE4F524F525D2F5
:1005FB0002C283220525E52570020524C39496E5E6
:10060B002494004012D283C202E4F529D20022D2F4
:10061B0083E4F52922D28322E53D14601414602E65
:10062B001460502403705230864F753D01753E06A1
:10063B0022D3E53E9400748094804003153E223013
:10064B008634753D02E4F53FF5407529022230866C
:10065B001DC3E5409496E53F940050090540E540E5
:10066B007017053F22752903D200753D03227529AA
:10067B00048003208603E4F53D228F828E83D3E52D
:10068B00829400E58394004045AFF97537008F38AD
:10069B00AFFAEFFEEE4237AFF9753B008F3CAFFA86
:1006AB00EFFEEE423BC3E53C9538F53AE53B95371B
:1006BB00F539FEAF3AE4FCFD7B687ABFF9F8D3124B
:1006CB00038250D3E582158270B4158380B022E487
:1006DB00FBEBC39404748094805048EB25E0242CEE
:1006EB00F8E6F53708E6F538AE37FF7C007DC81223
:1006FB00032DEB25E02418F8A60608A607EB25E04A
:10070B002418F8E6FE08E64E7016D3E5389400E59B
:10071B00379400400BEB25E02418F876000876019F
:10072B000B80AE22E4F5A77597A5F53BF53AF539A5
:10073B00F538E47F19FEFDFCAB3BAA3AA939A83882
:10074B00C3120382501800E53B2401F53BE4353A14
:10075B00F53AE43539F539E43538F53880D4A2AFBC
:10076B009205C2AF7597DE7597ADA20592AF22E4E5
:10077B00F537C3E5379404748094805037E53725FB
:10078B00E025E02408F8E4F6E53725E025E0240928
:10079B00F8E4F6E53725E025E0240AF8E4F6E5373A
:1007AB0025E025E0240BF8E4F6FDFCAF371204241A
:1007BB00053780BEC20622AE41AF427C087D0512D2
:1007CB00031BEF2419FFEE3436F5418F42FE22E472
:1007DB00F5A9E5A9548060FA75A903E5A9548060D1
:1007EB00FA75AF1422E4F5A775B220F5BB75DF3FA0
:1007FB0075B90B53E8F943E88422E5C8540453C890
:10080B00FB75CB6075CA7F43C80442C82275804D07
:10081B0075A4B275F1FB75D44D22E4F5A7C2DE7554
:10082B00D90875960122D2EC30EDFDAFBDAEBEC23C
:10083B00ED22852DFB852CFCC2D8C2DF3275E35827
:10084B0075F68775E2012253F77F75DACBE4F5FC79
:10085B002275A71075C1102275E61075A8A022D2BB
:10086B0001C2CF328E418F422200000002000700EE
:10087B001100210035004F0070009600C200F401FA
:10088B002D016D01B30200025402AF0311037B0370
:10089B00EB046304E2056905F7068D072B07D00807
:1008AB007D093209EF0AB40B810C560D330E190F6B
:1008BB00060FFC10FB1201131014281548167117A4
:1008CB00A218DC1A1E1B691CBD1E1A1F8020EE22EB
:1008DB006623E6256F2702289D2A412BEF2DA52F96
:1008EB0065312E330134DC36C138AF3AA73CA83E14
:1008FB00B240C642E34509473A49734BB74E0450E1
:10090B005A52BA552457985A155C9C5F2D61C8648E
:10091B006D671B69D36C956F617237751778017AA8
:10092B00F57DF380FB840D872A8A508D8190BB94D3
:10093B0000974F9AA89E0CA17AA4F2A874AC01AFB1
:10094B0098B339B6E5BA9CBE5CC227C5FDC9DDCDEF
:10095B00C7D1BCD5BCD9C6DDDBE1FAE624EA58EE3B
:10096B0098F2E1F736FB95FFFF00000209095B16D1
:0D097B00D52AFF463F68E99345C58FFFFF71
:00000001FF
