:020000040000FA
:100000000205DD85A73912085E12096D12099D12DD
:10001000092F1209B112094512095A12097A120957
:08002000A71209B88539A722D7
:10002B000209BFC104C103014100014200024300A8
:10003B00000133000231000002350000C106012C23
:0C004B0000022D0000022F0000C1050083
:10005B00020992BB010689828A83E0225002E722C1
:10006B00BBFE02E32289828A83E49322BB010CE567
:10007B008229F582E5833AF583E0225006E9258251
:10008B00F8E622BBFE06E92582F8E222E58229F595
:10009B0082E5833AF583E49322BB010989828A8343
:1000AB00F8E028F022500327F722BBFE05F8E328DF
:1000BB00F3228A838982F8E4932822BB010FF8E5A7
:1000CB008229F582E5833AF583E028F0225009C5B1
:1000DB008229F8E58226F622BBFE09C58229F8E2C1
:1000EB002582F222F8EA2583F583E9932822BB01C6
:1000FB000689828A83F0225002F722BBFE01F3228B
:10010B00F8BB010DE58229F582E5833AF583E8F02A
:10011B00225006E92582C8F622BBFE05E92582C8D6
:10012B00F222EF8DF0A4A8F0CF8CF0A428CE8DF0A6
:10013B00A42EFE22BC000BBE0029EF8DF084FFAD78
:10014B00F022E4CCF875F008EF2FFFEE33FEEC3322
:10015B00FCEE9DEC984005FCEE9DFE0FD5F0E9E41E
:10016B00CEFD22EDF8F5F0EE8420D21CFEADF0753D
:10017B00F008EF2FFFED33FD4007985006D5F0F256
:10018B0022C398FD0FD5F0EA2275F008758200EFB7
:10019B002FFFEE33FECD33CDCC33CCC58233C582AE
:1001AB009BED9AEC99E58298400CF582EE9BFEED67
:1001BB009AFDEC99FC0FD5F0D6E4CEFBE4CDFAE436
:1001CB00CCF9A88222B800C1B90059BA002DEC8B2A
:1001DB00F084CFCECDFCE5F0CBF97818EF2FFFEE06
:1001EB0033FEED33FDEC33FCEB33FB10D7039940BF
:1001FB0004EB99FB0FD8E5E4F9FA227818EF2FFFFF
:10020B00EE33FEED33FDEC33FCC933C910D7059B40
:10021B00E99A4007EC9BFCE99AF90FD8E0E4C9FA9C
:10022B00E4CCFB2275F010EF2FFFEE33FEED33FD28
:10023B00CC33CCC833C810D7079BEC9AE899400A4B
:10024B00ED9BFDEC9AFCE899F80FD5F0DAE4CDFBC9
:10025B00E4CCFAE4C8F922EB9FF5F0EA9E42F0E910
:10026B009D42F0E89C45F022EC8EF0A4CCC5F0CC7E
:10027B00CDF8EFA4CEC5F02DFDE43CFCE8A42EC8D0
:10028B00C5F03DFDE43CFCEFA4FFE5F028FEE43DAA
:10029B00FDE43CFC22E4F539C3E539940474809405
:1002AB00804003020464E53975F004A42408F9E4E2
:1002BB00F53BF53C893DF53E20072FAB3BAA3C12A5
:1002CB00005EC3944B748094804003020428740135
:1002DB001200A412005ED3944B74809480500302DE
:1002EB000428744B1200F9020428AB3BAA3CA93D2D
:1002FB00900001120077604890000174FF1200C655
:10030B00900002120077FF3395E0FE90000112007F
:10031B0077FDC39FEE6480F87480985004AF05801E
:10032B001AAB3BAA3CA93D90000212007725E0FFD7
:10033B00900001120077FEC3EF9EFF8F3E02042850
:10034B00120917C3EF9408E494005021120917EF18
:10035B00540704AB3BAA3CA93D90000212010B9041
:10036B00000212007725E0900001020425AB3BAAA6
:10037B003CA93D900003120077FF606E3395E0FEC1
:10038B00D3EF9400EE64809480402B90000374FFB5
:10039B001200C612005EC3946474809480AB3BAAB7
:1003AB003CA93D50047401802F900003120077F498
:1003BB00049000038064AB3BAA3CA93D90000374FE
:1003CB00011200C612005ED3943274809480AB3B52
:1003DB00AA3CA93D400774FF1200A4804090000383
:1003EB00120077F4049000038030120917C3EF94C6
:1003FB0010E494005027120917EF541F241EF53FE9
:10040B00120917EF30E004AF3F8005E53FF404FF1E
:10041B00AB3BAA3CA93D900003EF12010BAB3BAAEF
:10042B003CA93D12005E253EF53AC394807480943E
:10043B00804003753A7F75F002E53AA424C9F58232
:10044B00E5F03409F583E493FC740193FDD202AF1C
:10045B003912049105390202A3200729D207E4F5CA
:10046B0039C3E5399404748094805019E53925E03B
:10047B0025E02408F8E6C3944B748094805002C2A4
:10048B0007053980DC228F40300215AE29AF2A12C6
:10049B000273E47BFF7AFFF9F81201D0AC06AD07CB
:1004AB00C2AFE54025E02421F8A60408A605D2AF8B
:1004BB00E54024FE602E1460522402707675A7105E
:1004CB00ED4C700353D1FEE54025E02422F8E6F510
:1004DB00ABE54025E02421F8E6F5ACED4C6051434B
:1004EB00D101804C75A710ED4C700353D1FDE54045
:1004FB0025E02422F8E6F5B2E54025E02421F8E6D4
:10050B00F5B3ED4C600343D102802575A710ED4C7C
:10051B00700353D1FBE54025E02422F8E6F5B9E55D
:10052B004025E02421F8E6F5BAED4C600343D104F5
:10053B00E4F5A72212000375A71075C26175D1806F
:10054B0075C5FF75C6FF75C901E4F5A7D2DEC202FA
:10055B00FDFCFF120491C202E4FDFC7F0112049129
:10056B00C202E4FDFC7F02120491C202E4FDFC7F97
:10057B0003120491D2AF1209861209C4D286C28328
:10058B002086FD7534017F051208F31208A91209A4
:10059B00868E378F3830040DC2041202A012075218
:1005AB00AF341206E13003E6C200D28312080920F1
:1005BB00000C3004FAC204120669920080F1208606
:1005CB00FD7F647E001207B4C28675C90875870269
:1005DB0080BC787FE4F6D8FD7581460206240205BF
:1005EB003FE493A3F8E493A34003F68001F208DF02
:1005FB00F48029E493A3F85407240CC8C333C454E0
:10060B000F4420C8834004F456800146F6DFE48093
:10061B000B010204081020408090002EE47E019311
:10062B0060BCA3FF543F30E509541FFEE493A36065
:10063B00010ECF54C025E060A840B8E493A3FAE4C0
:10064B0093A3F8E493A3C8C582C8CAC583CAF0A311
:10065B00C8C582C8CAC583CADFE9DEE780BED2013E
:10066B00E4F539C3E5399404748094805062E5391C
:10067B0025E02421F8E6F53A08E6F53BD39400E5AE
:10068B003A94004032E53925E02418F8E6FE08E6F6
:10069B00FFD3E53B9FE53A9E400AE53B9FFFE53ADA
:1006AB009EFE80047E007F008E3C8F3DC202AD3DDE
:1006BB00AC3CAF39120491E53925E02421F8E6FE74
:1006CB0008E6D39400EE94004002C20105398093F2
:1006DB00C3300101D322EF24FE603814603814605C
:1006EB005D2403705FE52E452D701FC3E52C940B25
:1006FB00748094805048B2837E002083047F0A80EC
:10070B00027F288E2D8F2E052C22E52E152E70366E
:10071B00152D22C2832220050AE4F52FF530D205D0
:10072B00C283220530E5307002052FC39496E52F66
:10073B0094004012D283C205E4F534D20322D28353
:10074B00E4F53422D28322E54114601414602E1494
:10075B0060502403705230864F754101754206225A
:10076B00D3E5429400748094804003154222308676
:10077B0034754102E4F543F5447534022230861D8D
:10078B00C3E5449496E543940050090544E5447051
:10079B0017054322753403D20375410322753404C4
:1007AB008003208603E4F541228F828E83D3E5827A
:1007BB009400E58394004045AFF97539008F3AAF4B
:1007CB00FAEFFEEE4239AFF9753D008F3EAFFAEF0F
:1007DB00FEEE423DC3E53E953AF53CE53D9539F5D8
:1007EB003BFEAF3CE4FCFD7B687ABFF9F8D3120209
:1007FB006250D3E582158270B4158380B022E4FB7E
:10080B00EBC39404748094805048EB25E02421F8CA
:10081B00E6F53908E6F53AAE39FF7C007DC81201E2
:10082B003FEB25E02418F8A60608A607EB25E024E5
:10083B0018F8E6FE08E64E7016D3E53A9400E53953
:10084B009400400BEB25E02418F876000876010B9A
:10085B0080AE22E4F5A77597A5F53DF53CF53BF584
:10086B003AE47F19FEFDFCAB3DAA3CA93BA83AC379
:10087B00120262501800E53D2401F53DE4353CF5CC
:10088B003CE4353BF53BE4353AF53A80D4A2AF92E4
:10089B0001C2AF7597DE7597ADA20192AF22E4F559
:1008AB0039C3E5399404748094805039E53925E0D7
:1008BB0025E02408F8E4F6E53925E025E02409F8DD
:1008CB00E4F6E53925E025E0240AF8E4F6E53925D8
:1008DB00E025E0240BF8E4F6D202FDFCAF3912045C
:1008EB0091053980BCC20722EFD3940974809480A0
:1008FB0040027F098F2BEF25E024C9F582E4340AEF
:10090B00F583E493F529740193F52A22AE45AF469E
:10091B007C087D0512012DEF2419FFEE3436F545C9
:10092B008F46FE22E4F5A9E5A9548060FA75A90368
:10093B00E5A9548060FA75AF1422E4F5A775B220CF
:10094B00F5BB75DF3F75B90B53E8F943E88422E536
:10095B00C8540453C8FB75CB6075CA7F43C80442A7
:10096B00C82275804D75A4B275F1FF75D44D22E484
:10097B00F5A7C2DE75D90875960122D2EC30EDFDD4
:10098B00AFBDAEBEC2ED228522FB8521FCC2D8C213
:10099B00DF3275E35875F68775E2012253F77F75E1
:1009AB00DACBE4F5FC2275A71075C1102275E610A1
:1009BB0075A8A022D204C2CF328E458F46220000EA
:1009CB0000020007001100210035004F0070009657
:1009DB0000C200F4012D016D01B30200025402AFFD
:1009EB000311037B03EB046304E2056905F7068D32
:1009FB00072B07D0087D093209EF0AB40B810C567F
:100A0B000D330E190F060FFC10FB120113101428D7
:100A1B001548167117A218DC1A1E1B691CBD1E1A6D
:100A2B001F8020EE226623E6256F2702289D2A4190
:100A3B002BEF2DA52F65312E330134DC36C138AFAA
:100A4B003AA73CA83EB240C642E34509473A497330
:100A5B004BB74E04505A52BA552457985A155C9CB2
:100A6B005F2D61C8646D671B69D36C956F617237BD
:100A7B00751778017AF57DF380FB840D872A8A50F0
:100A8B008D8190BB9400974F9AA89E0CA17AA4F2EB
:100A9B00A874AC01AF98B339B6E5BA9CBE5CC2275B
:100AAB00C5FDC9DDCDC7D1BCD5BCD9C6DDDBE1FAEF
:100ABB00E624EA58EE98F2E1F736FB95FFFF0000CB
:100ACB000209095B16D52AFF463F68E99345C58F96
:020ADB00FFFF1B
:00000001FF
