:020000040000FA
:100000000205DC85A73912085D12096C12099C12E1
:10001000092E1209B012094412095912097912095C
:08002000A61209B78539A722D9
:10002B000209BEC104C103014000014100024200AC
:10003B00000133000231000002350000C106012C23
:0C004B0000022D0000022F0000C1050083
:10005B00020991BB010689828A83E0225002E722C2
:10006B00BBFE02E32289828A83E49322BB010CE567
:10007B008229F582E5833AF583E0225006E9258251
:10008B00F8E622BBFE06E92582F8E222E58229F595
:10009B0082E5833AF583E49322BB010989828A8343
:1000AB00F8E028F022500327F722BBFE05F8E328DF
:1000BB00F3228A838982F8E4932822BB010FF8E5A7
:1000CB008229F582E5833AF583E028F0225009C5B1
:1000DB008229F8E58226F622BBFE09C58229F8E2C1
:1000EB002582F222F8EA2583F583E9932822BB01C6
:1000FB000689828A83F0225002F722BBFE01F3228B
:10010B00F8BB010DE58229F582E5833AF583E8F02A
:10011B00225006E92582C8F622BBFE05E92582C8D6
:10012B00F222EF8DF0A4A8F0CF8CF0A428CE8DF0A6
:10013B00A42EFE22BC000BBE0029EF8DF084FFAD78
:10014B00F022E4CCF875F008EF2FFFEE33FEEC3322
:10015B00FCEE9DEC984005FCEE9DFE0FD5F0E9E41E
:10016B00CEFD22EDF8F5F0EE8420D21CFEADF0753D
:10017B00F008EF2FFFED33FD4007985006D5F0F256
:10018B0022C398FD0FD5F0EA2275F008758200EFB7
:10019B002FFFEE33FECD33CDCC33CCC58233C582AE
:1001AB009BED9AEC99E58298400CF582EE9BFEED67
:1001BB009AFDEC99FC0FD5F0D6E4CEFBE4CDFAE436
:1001CB00CCF9A88222B800C1B90059BA002DEC8B2A
:1001DB00F084CFCECDFCE5F0CBF97818EF2FFFEE06
:1001EB0033FEED33FDEC33FCEB33FB10D7039940BF
:1001FB0004EB99FB0FD8E5E4F9FA227818EF2FFFFF
:10020B00EE33FEED33FDEC33FCC933C910D7059B40
:10021B00E99A4007EC9BFCE99AF90FD8E0E4C9FA9C
:10022B00E4CCFB2275F010EF2FFFEE33FEED33FD28
:10023B00CC33CCC833C810D7079BEC9AE899400A4B
:10024B00ED9BFDEC9AFCE899F80FD5F0DAE4CDFBC9
:10025B00E4CCFAE4C8F922EB9FF5F0EA9E42F0E910
:10026B009D42F0E89C45F022EC8EF0A4CCC5F0CC7E
:10027B00CDF8EFA4CEC5F02DFDE43CFCE8A42EC8D0
:10028B00C5F03DFDE43CFCEFA4FFE5F028FEE43DAA
:10029B00FDE43CFC22E4F539C3E539940474809405
:1002AB00804003020463E53975F004A42408F9E4E3
:1002BB00F53AF53B893CF53D20072FAB3AAA3B12AB
:1002CB00005EC3944B748094804003020428740135
:1002DB001200A412005ED3944B74809480500302DE
:1002EB000428744B1200F9020428AB3AAA3BA93C30
:1002FB00900001120077604890000174FF1200C655
:10030B00900002120077FF3395E0FE90000112007F
:10031B0077FDC39FEE6480F87480985004AF05801E
:10032B001AAB3AAA3BA93C90000212007725E0FFDA
:10033B00900001120077FEC3EF9EFF8F3D02042851
:10034B00120916C3EF9408E494005021120916EF1A
:10035B00540704AB3AAA3BA93C90000212010B9044
:10036B00000212007725E0900001020425AB3AAAA7
:10037B003BA93C900003120077FF606E3395E0FEC3
:10038B00D3EF9400EE64809480402B90000374FFB5
:10039B001200C612005EC3946474809480AB3AAAB8
:1003AB003BA93C50047401802F900003120077F49A
:1003BB00049000038064AB3AAA3BA93C9000037401
:1003CB00011200C612005ED3943274809480AB3A53
:1003DB00AA3BA93C400774FF1200A4804090000385
:1003EB00120077F4049000038030120916C3EF94C7
:1003FB0010E494005027120916EF541F241EF53EEB
:10040B00120916EF30E004AF3E8005E53EF404FF21
:10041B00AB3AAA3BA93C900003EF12010BAB3AAAF3
:10042B003BA93C12005EFFAD3DED3395E0FCEF2D9B
:10043B00FFE43CFEEF25E0FFEE33FE74C82FF582A0
:10044B0074093EF583E493FC740193FDD202AF393A
:10045B0012049005390202A3200729D207E4F539CB
:10046B00C3E5399404748094805019E53925E0254F
:10047B00E02408F8E6C3944B748094805002C207C2
:10048B00053980DC228F3F300215AE29AF2A1202CC
:10049B0073E47BFF7AFFF9F81201D0AC06AD07C20B
:1004AB00AFE53F25E02421F8A60408A605D2AFE569
:1004BB003F24FE602E1460522402707675A710ED57
:1004CB004C700353D1FEE53F25E02422F8E6F5AB53
:1004DB00E53F25E02421F8E6F5ACED4C605143D126
:1004EB0001804C75A710ED4C700353D1FDE53F25F2
:1004FB00E02422F8E6F5B2E53F25E02421F8E6F505
:10050B00B3ED4C600343D102802575A710ED4C7001
:10051B000353D1FBE53F25E02422F8E6F5B9E53F8F
:10052B0025E02421F8E6F5BAED4C600343D104E451
:10053B00F5A72212000375A71075C26175D18075DE
:10054B00C5FF75C6FF75C901E4F5A7D2DEC202FD72
:10055B00FCFF120490C202E4FDFC7F01120490C266
:10056B0002E4FDFC7F02120490C202E4FDFC7F0357
:10057B00120490D2AF1209851209C3D286C283200E
:10058B0086FD7534017F051208F21208A812098541
:10059B008E378F3830040DC2041202A0120751AFF0
:1005AB00341206E03003E6C200D2831208082000A2
:1005BB000C3004FAC204120668920080F12086FD0A
:1005CB007F647E001207B3C28675C90875870280E7
:1005DB00BC787FE4F6D8FD75814502062302053E03
:1005EB00E493A3F8E493A34003F68001F208DFF44D
:1005FB008029E493A3F85407240CC8C333C4540FC5
:10060B004420C8834004F456800146F6DFE4800B97
:10061B00010204081020408090002EE47E019360BC
:10062B00BCA3FF543F30E509541FFEE493A36001C4
:10063B000ECF54C025E060A840B8E493A3FAE4932E
:10064B00A3F8E493A3C8C582C8CAC583CAF0A3C8DC
:10065B00C582C8CAC583CADFE9DEE780BED201E422
:10066B00F539C3E5399404748094805062E53925DB
:10067B00E02421F8E6F53A08E6F53BD39400E53A99
:10068B0094004032E53925E02418F8E6FE08E6FF31
:10069B00D3E53B9FE53A9E400AE53B9FFFE53A9E3B
:1006AB00FE80047E007F008E3C8F3DC202AD3DACD0
:1006BB003CAF39120490E53925E02421F8E6FE0819
:1006CB00E6D39400EE94004002C20105398093C337
:1006DB00300101D322EF24FE603814603814605DC2
:1006EB002403705FE52E452D701FC3E52C940B740E
:1006FB008094805048B2837E002083047F0A80025E
:10070B007F288E2D8F2E052C22E52E152E7036155B
:10071B002D22C2832220050AE4F52FF530D205C223
:10072B0083220530E5307002052FC39496E52F9494
:10073B00004012D283C205E4F534D20322D283E403
:10074B00F53422D28322E54014601414602E146019
:10075B00502403705230864F75400175410622D3E9
:10076B00E541940074809480400315412230863417
:10077B00754002E4F542F5437534022230861DC301
:10078B00E5439496E542940050090543E543701701
:10079B00054222753403D20375400322753404805D
:1007AB0003208603E4F540228F828E83D3E5829467
:1007BB0000E58394004045AFF97539008F3AAFFAE5
:1007CB00EFFEEE4239AFF9753D008F3EAFFAEFFE0B
:1007DB00EE423DC3E53E953AF53CE53D9539F53B9B
:1007EB00FEAF3CE4FCFD7B687ABFF9F8D3120262E2
:1007FB0050D3E582158270B4158380B022E4FBEBF5
:10080B00C39404748094805048EB25E02421F8E6CF
:10081B00F53908E6F53AAE39FF7C007DC812013F89
:10082B00EB25E02418F8A60608A607EB25E024180C
:10083B00F8E6FE08E64E7016D3E53A9400E53994D7
:10084B0000400BEB25E02418F876000876010B80AE
:10085B00AE22E4F5A77597A5F53DF53CF53BF53ACA
:10086B00E47F19FEFDFCAB3DAA3CA93BA83AC312A1
:10087B000262501800E53D2401F53DE4353CF53CA2
:10088B00E4353BF53BE4353AF53A80D4A2AF92011F
:10089B00C2AF7597DE7597ADA20192AF22E4F53921
:1008AB00C3E5399404748094805039E53925E025EB
:1008BB00E02408F8E4F6E53925E025E02409F8E41E
:1008CB00F6E53925E025E0240AF8E4F6E53925E0DC
:1008DB0025E0240BF8E4F6D202FDFCAF39120490AC
:1008EB00053980BCC20722EFD394097480948040F1
:1008FB00027F098F2BEF25E024C8F582E4340AF53B
:10090B0083E493F529740193F52A22AE44AF457C19
:10091B00087D0512012DEF2419FFEE3436F5448FB7
:10092B0045FE22E4F5A9E5A9548060FA75A903E513
:10093B00A9548060FA75AF1422E4F5A775B220F5BF
:10094B00BB75DF3F75B90B53E8F943E88422E5C863
:10095B00540453C8FB75CB6075CA7F43C80442C8A7
:10096B002275804D75A4B275F1FF75D44D22E4F557
:10097B00A7C2DE75D90875960122D2EC30EDFDAF1A
:10098B00BDAEBEC2ED228522FB8521FCC2D8C2DFE3
:10099B003275E35875F68775E2012253F77F75DAE6
:1009AB00CBE4F5FC2275A71075C1102275E6107506
:1009BB00A8A022D204C2CF328E448F452200000061
:1009CB00020007001100210035004F007000960057
:1009DB00C200F4012D016D01B30200025402AF03FA
:1009EB0011037B03EB046304E2056905F7068D072E
:1009FB002B07D0087D093209EF0AB40B810C560D79
:100A0B00330E190F060FFC10FB12011310142815CF
:100A1B0048167117A218DC1A1E1B691CBD1E1A1F63
:100A2B008020EE226623E6256F2702289D2A412B84
:100A3B00EF2DA52F65312E330134DC36C138AF3A9B
:100A4B00A73CA83EB240C642E34509473A49734B1F
:100A5B00B74E04505A52BA552457985A155C9C5F9E
:100A6B002D61C8646D671B69D36C956F61723775A7
:100A7B001778017AF57DF380FB840D872A8A508DD8
:100A8B008190BB9400974F9AA89E0CA17AA4F2A8D0
:100A9B0074AC01AF98B339B6E5BA9CBE5CC227C53E
:100AAB00FDC9DDCDC7D1BCD5BCD9C6DDDBE1FAE6CE
:100ABB0024EA58EE98F2E1F736FB95FFFF000002AF
:100ACB0009095B16D52AFF463F68E99345C58FFF99
:010ADB00FF1B
:00000001FF
