:020000040000FA
:100000000204D385A7391207541208631208931209
:1000100008251208A712083B12085012087012088F
:080020009D1208AE8539A722EC
:10002B000208B5C104012B09C103013F00014000C7
:10003B00024100000133000231000002350000C113
:0F004B0006012C00022D0000022F0000C105004D
:10005B00020888E4F539C3E5399404748094804030
:10006B0003020221E53975F004A42408F9E4F53AFA
:10007B00F53B893CF53D20072FAB3AAA3B12024ECC
:10008B00C394507480948040030201E67401120201
:10009B009412024ED394507480948050030201E664
:1000AB0074501202E90201E6AB3AAA3BA93C90005C
:1000BB0001120267604890000174FF1202B69000B3
:1000CB0002120267FF3395E0FE900001120267FDFA
:1000DB00C39FEE6480F87480985004AF05801AAB10
:1000EB003AAA3BA93C90000212026725E0FF900060
:1000FB0001120267FEC3EF9EFF8F3D0201E612085D
:10010B000DC3EF9408E49400502112080DEF54072F
:10011B0004AB3AAA3BA93C9000021202FB900002EE
:10012B0012026725E09000010201E3AB3AAA3BA95A
:10013B003C900003120267FF606E3395E0FED3EF35
:10014B009400EE64809480402B90000374FF1202A5
:10015B00B612024EC3946974809480AB3AAA3BA941
:10016B003C50047401802F900003120267F404903A
:10017B0000038064AB3AAA3BA93C900003740112C4
:10018B0002B612024ED3943774809480AB3AAA3BDA
:10019B00A93C400774FF12029480409000031202A6
:1001AB0067F404900003803012080DC3EF9410E441
:1001BB009400502712080DEF541F241EF53E120811
:1001CB000DEF30E004AF3E8005E53EF404FFAB3AA3
:1001DB00AA3BA93C900003EF1202FBAB3AAA3BA946
:1001EB003C12024EFFAD3DED3395E0FCEF2DFFE4ED
:1001FB003CFEEF25E0FFEE33FE74BF2FF582740853
:10020B003EF583E493FC740193FDD202AF391203E4
:10021B00950539020061200729D207E4F539C3E5BA
:10022B00399404748094805019E53925E025E02435
:10023B0008F8E6C39450748094805002C2070539C5
:10024B0080DC22BB010689828A83E0225002E722EE
:10025B00BBFE02E32289828A83E49322BB010CE575
:10026B008229F582E5833AF583E0225006E925825F
:10027B00F8E622BBFE06E92582F8E222E58229F5A3
:10028B0082E5833AF583E49322BB010989828A8351
:10029B00F8E028F022500327F722BBFE05F8E328ED
:1002AB00F3228A838982F8E4932822BB010FF8E5B5
:1002BB008229F582E5833AF583E028F0225009C5BF
:1002CB008229F8E58226F622BBFE09C58229F8E2CF
:1002DB002582F222F8EA2583F583E9932822BB01D4
:1002EB000689828A83F0225002F722BBFE01F32299
:1002FB00F8BB010DE58229F582E5833AF583E8F039
:10030B00225006E92582C8F622BBFE05E92582C8E4
:10031B00F222EF8DF0A4A8F0CF8CF0A428CE8DF0B4
:10032B00A42EFE22BC000BBE0029EF8DF084FFAD86
:10033B00F022E4CCF875F008EF2FFFEE33FEEC3330
:10034B00FCEE9DEC984005FCEE9DFE0FD5F0E9E42C
:10035B00CEFD22EDF8F5F0EE8420D21CFEADF0754B
:10036B00F008EF2FFFED33FD4007985006D5F0F264
:10037B0022C398FD0FD5F0EA22EB9FF5F0EA9E42DF
:10038B00F0E99D42F0E89C45F022AB0730020FAE3E
:10039B0004ED7802CEC313CE13D8F9FDAC06C2AF71
:1003AB00EB25E02421F8A60408A605D2AFEB24FE2A
:1003BB00602C14604E2402707075A710ED4C700306
:1003CB0053D1FEEB25E02422F8E6F5ABEB25E02438
:1003DB0021F8E6F5ACED4C604D43D101804875A793
:1003EB0010ED4C700353D1FDEB25E02422F8E6F51C
:1003FB00B2EB25E02421F8E6F5B3ED4C600343D1D5
:10040B0002802375A710ED4C700353D1FBEB25E055
:10041B002422F8E6F5B9EB25E02421F8E6F5BAED50
:10042B004C600343D104E4F5A72212000375A71017
:10043B0075C26175D18075C5FF75C6FF75C901E4BD
:10044B00F5A7D2DEC202FDFCFF120395C202E4FD4A
:10045B00FC7F01120395C202E4FDFC7F021203959F
:10046B00C202E4FDFC7F03120395D2AF12087C128B
:10047B0008BAD286C2832086FD7534017F05120728
:10048B00E912079F12087C8E378F3830040DC20497
:10049B0012005E120648AF341205D73003E6C200D5
:1004AB00D2831206FF20000C3004FAC20412055F3F
:1004BB00920080F12086FD7F647E001206AAC28620
:1004CB0075C90875870280BC787FE4F6D8FD758105
:1004DB004402051A020435E493A3F8E493A3400302
:1004EB00F68001F208DFF48029E493A3F854072483
:1004FB000CC8C333C4540F4420C8834004F4568043
:10050B000146F6DFE4800B010204081020408090C6
:10051B00002EE47E019360BCA3FF543F30E50954E9
:10052B001FFEE493A360010ECF54C025E060A840EA
:10053B00B8E493A3FAE493A3F8E493A3C8C582C8E1
:10054B00CAC583CAF0A3C8C582C8CAC583CADFE9B6
:10055B00DEE780BED201E4F539C3E539940474803B
:10056B0094805062E53925E02421F8E6F53A08E657
:10057B00F53BD39400E53A94004032E53925E0246D
:10058B0018F8E6FE08E6FFD3E53B9FE53A9E400AE6
:10059B00E53B9FFFE53A9EFE80047E007F008E3C8C
:1005AB008F3DC202AD3DAC3CAF39120395E5392509
:1005BB00E02421F8E6FE08E6D39400EE9400400216
:1005CB00C20105398093C3300101D322EF24FE60B1
:1005DB003814603814605D2403705FE52E452D7070
:1005EB001FC3E52C940B748094805048B2837E001B
:1005FB002083047F0A80027F288E2D8F2E052C22CC
:10060B00E52E152E7036152D22C2832220050AE405
:10061B00F52FF530D205C283220530E53070020587
:10062B002FC39496E52F94004012D283C205E4F5B4
:10063B0034D20322D283E4F53422D28322E53F1451
:10064B00601414602E1460502403705230864F7562
:10065B003F0175400622D3E540940074809480409E
:10066B0003154022308634753F02E4F541F542759F
:10067B0034022230861DC3E5429496E54194005026
:10068B00090542E5427017054122753403D2037503
:10069B003F03227534048003208603E4F53F228F49
:1006AB00828E83D3E5829400E58394004045AFF9B5
:1006BB007539008F3AAFFAEFFEEE4239AFF9753D5F
:1006CB00008F3EAFFAEFFEEE423DC3E53E953AF5A5
:1006DB003CE53D9539F53BFEAF3CE4FCFD7B687A90
:1006EB00BFF9F8D312038450D3E582158270B41589
:1006FB008380B022E4FBEBC3940474809480504855
:10070B00EB25E02421F8E6F53908E6F53AAE39FF9A
:10071B007C007DC812032FEB25E02418F8A60608F1
:10072B00A607EB25E02418F8E6FE08E64E7016D374
:10073B00E53A9400E5399400400BEB25E02418F8DA
:10074B0076000876010B80AE22E4F5A77597A5F528
:10075B003DF53CF53BF53AE47F19FEFDFCAB3DAABC
:10076B003CA93BA83AC3120384501800E53D240171
:10077B00F53DE4353CF53CE4353BF53BE4353AF5EA
:10078B003A80D4A2AF9201C2AF7597DE7597ADA236
:10079B000192AF22E4F539C3E53994047480948057
:1007AB005039E53925E025E02408F8E4F6E539254C
:1007BB00E025E02409F8E4F6E53925E025E0240AF4
:1007CB00F8E4F6E53925E025E0240BF8E4F6D2024F
:1007DB00FDFCAF39120395053980BCC20722EFD35C
:1007EB0094097480948040027F098F2BEF25E024BD
:1007FB00BFF582E43409F583E493F529740193F58D
:10080B002A22AE43AF447C087D0512031DEF241949
:10081B00FFEE3436F5438F44FE22E4F5A9E5A954E7
:10082B008060FA75A903E5A9548060FA75AF1422AC
:10083B00E4F5A775B220F5BB75DF3F75B90B53E82F
:10084B00F943E88422E5C8540453C8FB75CB6075A3
:10085B00CA7F43C80442C82275804D75A4B275F196
:10086B00FB75D44D22E4F5A7C2DE75D90875960148
:10087B0022D2EC30EDFDAFBDAEBEC2ED228522FB28
:10088B008521FCC2D8C2DF3275E35875F68775E255
:10089B00012253F77F75DACBE4F5FC2275A71075AF
:1008AB00C1102275E61075A8A022D204C2CF328ED9
:1008BB00438F442200000002000700110021003585
:1008CB00004F0070009600C200F4012D016D01B3C2
:1008DB000200025402AF0311037B03EB046304E237
:1008EB00056905F7068D072B07D0087D093209EF3F
:1008FB000AB40B810C560D330E190F060FFC10FBAF
:10090B001201131014281548167117A218DC1A1EA1
:10091B001B691CBD1E1A1F8020EE226623E6256F65
:10092B002702289D2A412BEF2DA52F65312E330150
:10093B0034DC36C138AF3AA73CA83EB240C642E3DE
:10094B004509473A49734BB74E04505A52BA55248E
:10095B0057985A155C9C5F2D61C8646D671B69D3F2
:10096B006C956F617237751778017AF57DF380FBA3
:10097B00840D872A8A508D8190BB9400974F9AA83B
:10098B009E0CA17AA4F2A874AC01AF98B339B6E56A
:10099B00BA9CBE5CC227C5FDC9DDCDC7D1BCD5BCD9
:1009AB00D9C6DDDBE1FAE624EA58EE98F2E1F73638
:1009BB00FB95FFFF00000209095B16D52AFF463F96
:0809CB0068E99345C58FFFFFA9
:00000001FF
