:020000040000FA
:100000000204A885A72D120589120645120675124D
:10001000061C1206891200461206321206521206F9
:080020007F120690852DA72236
:10002B0002069DAE18AF197C087D0512031BEF2449
:10003B0019FFEE3436F5188F19FE22E4F5A775B2C9
:10004B0020F5BB75DF3F75B90B53E8F943E8842204
:10005B0002066AE4F52DC3E52D9404748094804068
:10006B000302021FE52D75F004A42408F9E4F52E14
:10007B00F52F8930F53120032FAB2EAA2F12024C0E
:10008B00C394507480948040030201E67401120201
:10009B009212024CD394507480948050030201E668
:1000AB0074501202E70201E6AB2EAA2FA930900082
:1000BB0001120265604890000174FF1202B49000B7
:1000CB0002120265FF3395E0FE900001120265FDFE
:1000DB00C39FEE6480F87480985004AF05801AAB10
:1000EB002EAA2FA93090000212026525E0FF900086
:1000FB0001120265FEC3EF9EFF8F310201E6120073
:10010B002EC3EF9408E49400502112002EEF5407F5
:10011B0004AB2EAA2FA9309000021202F990000214
:10012B0012026525E09000010201E3AB2EAA2FA974
:10013B0030900003120265FF606E3395E0FED3EF43
:10014B009400EE64809480402B90000374FF1202A5
:10015B00B412024CC3946974809480AB2EAA2FA95D
:10016B003050047401802F900003120265F4049048
:10017B0000038064AB2EAA2FA930900003740112E8
:10018B0002B412024CD3943774809480AB2EAA2FF6
:10019B00A930400774FF12029280409000031202B4
:1001AB0065F404900003803012002EC3EF9410E42A
:1001BB009400502712002EEF541F241EF53212000C
:1001CB002EEF30E004AF328005E532F404FFAB2EA6
:1001DB00AA2FA930900003EF1202F9AB2EAA2FA978
:1001EB003012024CFFAD31ED3395E0FCEF2DFFE407
:1001FB003CFEEF25E0FFEE33FE74A72FF58274066D
:10020B003EF583E493FC740193FDAF2D12041C05A2
:10021B002D020061200329D203E4F52DC3E52D94B3
:10022B0004748094805019E52D25E025E02408F80E
:10023B00E6C39450748094805002C203052D80DC79
:10024B0022BB010689828A83E0225002E722BBFE91
:10025B0002E32289828A83E49322BB010CE5822983
:10026B00F582E5833AF583E0225006E92582F8E62C
:10027B0022BBFE06E92582F8E222E58229F582E51A
:10028B00833AF583E49322BB010989828A83F8E0E0
:10029B0028F022500327F722BBFE05F8E328F322B0
:1002AB008A838982F8E4932822BB010FF8E582291F
:1002BB00F582E5833AF583E028F0225009C58229BF
:1002CB00F8E58226F622BBFE09C58229F8E22582D3
:1002DB00F222F8EA2583F583E9932822BB010689EC
:1002EB00828A83F0225002F722BBFE01F322F8BB75
:1002FB00010DE58229F582E5833AF583E8F022507A
:10030B0006E92582C8F622BBFE05E92582C8F22242
:10031B00EF8DF0A4A8F0CF8CF0A428CE8DF0A42EF6
:10032B00FE22EB9FF5F0EA9E42F0E99D42F0E89C3D
:10033B0045F02212000375A71075C26175D1807547
:10034B00C5FF75C6FF75C901E4F5A7D2DEFDFCFF3D
:10035B0012041CE4FDFC7F0112041CE4FDFC7F0273
:10036B0012041CE4FDFC7F0312041CD2AFE4F52A3B
:10037B00C3E52A9403748094805016C2837FC87E91
:10038B0000120534D2837FC87E00120534052A8003
:10039B00DF12065E1206A2D2861205D412065E8EFC
:1003AB002A8F2B300205C20212005E3086EED2007D
:1003BB00C2837FC87E00120534E4F52CC3E52C9470
:1003CB000C7480948050127F647E0012053420865A
:1003DB0004C2008004052C80E3D2833000BEE4FD10
:1003EB00FCFF12041CE4FDFC7F0112041CE4FDFC69
:1003FB007F0212041CE4FDFC7F0312041C2086FD0B
:10040B007F2C7E01120534C28675C9087587028060
:10041B008BC2AFEF25E02421F8A60408A605D2AFC6
:10042B00EF24FE602C14604E2402707075A710ED43
:10043B004C700353D1FEEF25E02422F8E6F5ABEF29
:10044B0025E02421F8E6F5ACED4C604D43D101805D
:10045B004875A710ED4C700353D1FDEF25E0242216
:10046B00F8E6F5B2EF25E02421F8E6F5B3ED4C60A4
:10047B000343D102802375A710ED4C700353D1FBBE
:10048B00EF25E02422F8E6F5B9EF25E02421F8E684
:10049B00F5BAED4C600343D104E4F5A722787FE471
:1004AB00F6D8FD7581320204EF02033EE493A3F804
:1004BB00E493A34003F68001F208DFF48029E49370
:1004CB00A3F85407240CC8C333C4540F4420C88367
:1004DB004004F456800146F6DFE4800B0102040869
:1004EB0010204080900697E47E019360BCA3FF54DC
:1004FB003F30E509541FFEE493A360010ECF54C0B7
:10050B0025E060A840B8E493A3FAE493A3F8E4933E
:10051B00A3C8C582C8CAC583CAF0A3C8C582C8CA46
:10052B00C583CADFE9DEE780BE8F828E83D3E58287
:10053B009400E58394004045AFF9752D008F2EAFE5
:10054B00FAEFFEEE422DAFF97531008F32AFFAEFB5
:10055B00FEEE4231C3E532952EF530E531952DF5A2
:10056B002FFEAF30E4FCFD7B687ABFF9F8D31203A2
:10057B002D50D3E582158270B4158380B022E4F53B
:10058B00A77597A5F531F530F52FF52EE47F19FEFC
:10059B00FDFCAB31AA30A92FA82EC312032D501886
:1005AB0000E5312401F531E43530F530E4352FF534
:1005BB002FE4352EF52E80D4A2AF9201C2AF7597E2
:1005CB00DE7597ADA20192AF22E4F52DC3E52D9414
:1005DB0004748094805037E52D25E025E02408F83D
:1005EB00E4F6E52D25E025E02409F8E4F6E52D25D4
:1005FB00E025E0240AF8E4F6E52D25E025E0240BC0
:10060B00F8E4F6FDFCAF2D12041C052D80BEC203D1
:10061B0022E4F5A9E5A9548060FA75A903E5A9546C
:10062B008060FA75AF1422E5C8540453C8FB75CB30
:10063B006075CA7F43C80442C82275804D75A4B249
:10064B0075F1FB75D44D22E4F5A7C2DE75D908759B
:10065B00960122D2EC30EDFDAFBDAEBEC2ED2285D0
:10066B0022FB8521FCC2D8C2DF3275E35875F687B1
:10067B0075E2012253F77F75DACBE4F5FC2275A7FF
:10068B001075C1102275E61075A8A022C1020129B0
:10069B000900D202C2CF328E188F1922000000023D
:1006AB000007001100210035004F0070009600C2BA
:1006BB0000F4012D016D01B30200025402AF0311CE
:1006CB00037B03EB046304E2056905F7068D072B37
:1006DB0007D0087D093209EF0AB40B810C560D3394
:1006EB000E190F060FFC10FB1201131014281548DE
:1006FB00167117A218DC1A1E1B691CBD1E1A1F804F
:10070B0020EE226623E6256F2702289D2A412BEF38
:10071B002DA52F65312E330134DC36C138AF3AA706
:10072B003CA83EB240C642E34509473A49734BB732
:10073B004E04505A52BA552457985A155C9C5F2D4B
:10074B0061C8646D671B69D36C956F6172377517E0
:10075B0078017AF57DF380FB840D872A8A508D8191
:10076B0090BB9400974F9AA89E0CA17AA4F2A87400
:10077B00AC01AF98B339B6E5BA9CBE5CC227C5FDD8
:10078B00C9DDCDC7D1BCD5BCD9C6DDDBE1FAE624CA
:10079B00EA58EE98F2E1F736FB95FFFF00000209ED
:1007AB00095B16D52AFF463F68E99345C58FFFFFC6
:00000001FF
